:020000040800F2
:10000000E0B801200D0200088F420008573B0008AD
:100010008D4200087D0500082164000800000000F2
:100020000000000000000000000000001D44000867
:100030008D060008000000001B4400081F44000853
:1000400027020008270200082702000827020008EC
:100050002702000827020008B50700082702000849
:1000600027020008270200082702000827020008CC
:1000700027020008C505000827020008270200081B
:10008000D105000827020008210400082702000803
:10009000270200082702000827020008270200089C
:1000A000270200082702000827020008270200088C
:1000B0001D45000827020008270200082702000843
:1000C000270200082702000827020008270200086C
:1000D0002702000827020008794D000827020008BF
:1000E000270200082702000827020008270200084C
:1000F000270200082702000827020008270200083C
:10010000270200082702000827020008270200082B
:10011000E548000827020008270200082702000817
:10012000DD05000827020008270200082702000852
:1001300027020008270200082702000827020008FB
:100140002702000827020008270200089142000841
:1001500027020008270200082702000827020008DB
:1001600027020008270200082702000827020008CB
:1001700027020008270200082702000800000000EC
:1001800027020008270200082702000827020008AB
:10019000270200082702000827020008270200089B
:1001A000270200082702000827020008270200088B
:1001B000270200082702000827020008270200087B
:1001C000270200082702000800000000270200089C
:1001D000270200082702000827020008270200085B
:1001E000270200082702000827020008270200084B
:1001F0002702000827020008DFF80CD000F08CF876
:1002000000480047D5640008E0B801200648804750
:1002100006480047FEE7FEE7FEE7FEE7FEE7FEE7EB
:10022000FEE7FEE7FEE7FEE7C9440008F901000823
:100230002DE9F05F0546002092469B46884606461B
:10024000814640241BE0284641464746224600F0AE
:1002500053F853465A46C01A914110D311461846D6
:10026000224600F03AF82D1A67EB01084F46224665
:100270000120002100F031F817EB00094E41201E4B
:10028000A4F10104DFDC484631462A464346BDE876
:10029000F09F40EA01039B0703D009E008C9121F41
:1002A00008C0042AFAD203E011F8013B00F8013B30
:1002B000521EF9D27047D2B201E000F8012B491E5C
:1002C000FBD270470022F6E710B513460A460446F3
:1002D0001946FFF7F0FF204610BD202A04DB203A24
:1002E00000FA02F1002070479140C2F1200320FA89
:1002F00003F3194390407047202A04DB203A21FA87
:1003000002F00021704721FA02F3D040C2F120022E
:100310009140084319467047064C074D06E0E068D7
:1003200040F0010394E8070098471034AC42F6D33C
:10033000FFF766FF606D0008806D000870B58C18CF
:1003400010F8015B15F0070301D110F8013B2A11E9
:1003500006D110F8012B03E010F8016B01F8016BD6
:100360005B1EF9D12B0705D40023521E0DD401F8D2
:10037000013BFAE710F8013BCB1A921C03E013F89B
:10038000015B01F8015B521EF9D5A142D8D30020D0
:1003900070BD10B50146806B026C12F0500F05D095
:1003A000026CD20626D500F093FB10BD016C41F41F
:1003B0000071016401688A6812F0405F17D1826998
:1003C000AAB9CA6A12F4700F02D08A6852050ED414
:1003D0004A6822F020024A60016C21F480710164B5
:1003E000016CC90403D4016C41F00101016400F007
:1003F0006DFB10BD806BC26C0846BDE81040104715
:1004000010B5806B40210164416C41F004014164EE
:1004100000F05EFB10BD10B5806B00F058FB10BD06
:10042000054810B500F058FB044800F055FBBDE846
:100430001040034800F050BBC83A0120103B012097
:10044000583B01204A496FF0706210B5D1F804336F
:1004500023F44033C1F80433D1F804334468234310
:10046000C1F8043301684B6823F480734B60016862
:1004700003694C6844EA03234B6001684B6823F02E
:1004800040734B60016884684B6823434B6001688C
:100490008B6823F400638B600168C4688B68234316
:1004A0008B60816AD14201688A6822F070628A603A
:1004B00001680DD0836A8A681A438A6001688A6875
:1004C00022F040528A600168C36A8A681A4302E0D7
:1004D0008A6822F040528A6001688A6822F002022B
:1004E0008A60016882698B6843EA42028A6090F8F8
:1004F00020100029016811D01E4A4B6843F40063A4
:100500004B6001684B6823F460434B600168446AA8
:100510004B6802EB443213434B6003E04A6822F419
:1005200000624A600168144BCA6A22F47002CA620F
:100530000168848BCA6A03EB04531A43CA620168D8
:100540008A6822F400728A60016890F830208B6813
:1005500043EA42228A6001688A6822F480628A60E3
:10056000016840698A6842EA8020886010BD000006
:100570000020014000E0FFFF0000F0FFFEE7002048
:10058000704700207047000005490022054810B55B
:1005900004F0EEFC0449034804F0E4FC002010BD24
:1005A000C050012020400120C048012001460448DD
:1005B00010B504F0D7FC024804F0B6FC002010BDD2
:1005C00020400120014800F04DBD0000603F0120A7
:1005D000014800F047BD0000C03F0120014800F085
:1005E00041BD0000003F012001681823CAB2103A43
:1005F000B2FBF3F2054B6FF30901032A9B5CC36561
:1006000000D9091D8165084670470000566D000835
:1006100010B583694FF0C074826A0146002053B15F
:10062000B3F5005F15D072B1012A0CD0022A0AD0AE
:10063000032A09D104E01AB1012A06D0022A03D103
:10064000C96AC90100D5012010BDC96AA142FAD00A
:1006500010BD002AF7D0012AF2D0022AF3D0032AD3
:10066000F3D010BD30B50468256825F480252560D9
:10067000046863608368402B036803D09960006856
:10068000C26030BD9A600068C16030BD7047000034
:100690002DE9F041044621B14FF40061C800C4E9DE
:1006A0000201E0690025002862D028462368D4E9C9
:1006B000021C3A4F40261A6841EA0C0101433A40B5
:1006C00041F400701043186020680768012000F0B2
:1006D00049FE20680760206846602068466801205F
:1006E00000F040FE20684FF6417246602068856049
:1006F0002068C56021688869104040F080008861EA
:1007000020688669012000F02DFE2068866120683F
:10071000C5612068C569012000F024FE2068204BD7
:100720002049C561206800F5805082691A40114354
:100730008161206800F580508569012000F012FE7B
:100740002068194900F580508561206800F58050C7
:100750000160206800F580500568012000F002FE6D
:10076000206800F580500560A069012803D009E0E9
:100770004FF480609AE720680C4A00F58050C16908
:100780001143C16160690A4982880A640278D0F81D
:10079000010042EA00204864BDE8F0810F8120FF9B
:1007A000233FDEF8040020028020C1024000010047
:1007B00000800240012001F045B870474FF0000270
:1007C00029B101291FD0022920D04FF440720B28F3
:1007D00000D9001D0F490B6823F440730B600B68B0
:1007E00013430B600A68022303EBC00322F0F802F4
:1007F0000A60086818430860086840F480300860A0
:10080000BFF34F8F70474FF48072E0E74FF40072F0
:10081000DDE70000103C0240074A136823F44073F0
:10082000136013681360136843F0010313600170D1
:10083000BFF34F8F70470000103C0240094910B5CC
:100840000C6824F440740C600C6844F440740C6030
:100850000C6844F001040C6002604360BFF34F8FEA
:1008600010BD0000103C0240084A136823F4407396
:100870001360136843F480731360136843F001033B
:1008800013600180BFF34F8F70470000103C02409F
:10089000084A136823F440731360136843F4007329
:1008A0001360136843F0010313600160BFF34F8FBF
:1008B00070470000103C0240134914480A68920730
:1008C00003D5826942F0200282610A68D20603D50C
:1008D000826942F0100282610A68920603D5826939
:1008E00042F0080282610A68520603D5826942F02A
:1008F000040282610A68120603D5826942F002028C
:100900008261F220086070470C3C0240C058012010
:10091000124970B505460020886101F09DF8104C21
:10092000064609E0681C07D025B101F095F8801B48
:10093000A84201D9032070BD2068C003F2D420680A
:1009400010F0F20F03D0FFF7B7FF012070BD206851
:10095000C00701D001202060002070BDC0580120D8
:100960000C3C024070470000F8B50025009590F857
:100970003C20012A18D0012280F83C200A68072375
:100980004E4C0668092A1AD90A3A02EB4207F26865
:10099000BB409A43F2600E680268A64206D10B7A09
:1009A000D66846EA036308E00220F8BD0A3E8B6879
:1009B000D76806EB4606B3403B43D3600EE002EB3C
:1009C00042073269BB409A43326103680E788A68F5
:1009D0001F6906EB4606B2403A431A614A681F2374
:1009E000072A13D20668521E02EB8207726BBB40C5
:1009F0009A43726303680E790A88761E5F6B92B21F
:100A000006EB8606B2403A435A6327E006680D2A91
:100A100012D2D21F02EB8207326BBB409A43326381
:100A200002680E790B88F61F176B9BB206EB8606E1
:100A3000B3403B43136311E00D3A02EB8207F26AC5
:100A4000BB409A43F26202680E790B880D3ED76A6A
:100A50009BB206EB8606B3403B43D362184A036859
:100A6000934208D10B68122B05D1D2F8043343F41A
:100A70008003C2F80433036893421AD10B68A3427F
:100A800001D0112B15D1D2F8043343F40003C2F87E
:100A900004330968A1420CD10A490B4A0968B1FB29
:100AA000F2F101EB8101490000E0491E00910029AB
:100AB000FBD180F83C500020F8BD0000120000106F
:100AC000002001401C01002040420F007047704789
:100AD00070470068C06C704770B5044600680168D4
:100AE0004268C1F34001C2F3401251B34AB3216CD2
:100AF000C90603D4216C41F400712164816811F0AE
:100B0000405F17D1A169A9B9C16A11F4700F02D071
:100B1000816849050ED4416821F020014160206CB4
:100B200020F480702064206CC00403D4206C40F05A
:100B3000010020642046FFF7C9FF21686FF0120012
:100B40000860206801684268C1F38001C2F3C012E6
:100B500089B382B3216CC90603D4216C41F40051DE
:100B60002164816811F4401F1ED1816B11F4401F74
:100B700002D08168490517D44168490514D48168B9
:100B800011F0405F10D1A16971B9416821F0800175
:100B90004160206C20F480502064206CC00503D498
:100BA000206C40F0010020642046FFF7DBFE216846
:100BB0006FF00C00086020680168436811F0010FB5
:100BC000C3F380110ED069B10068C0070AD0206C51
:100BD00040F480302064204600F046F821686FF031
:100BE00001000860206801684268C1F340110029D3
:100BF000C2F380620DD0002A0BD0616C6FF020052B
:100C000041F00201616405602046FFF761FF206842
:100C1000056070BD70B504004FF0000503D0206C76
:100C2000002610B107E0012070BD204600F01EF83C
:100C3000666484F83C60206CC00610D4206C20F4FC
:100C4000885040F0020020642046FFF7FBFB6664FA
:100C5000206C20F0020040F00100206400E001253B
:100C600084F83C60284670BD70470000F0B587B03E
:100C7000064614216846FFF725FB41490025414BF4
:100C80000324326814393E483F4F9A4211D102681A
:100C900042F480720260006800F480700590086879
:100CA00040F001000860086800F001000590012094
:100CB00013E0364B9A4220D1026842F4007202607F
:100CC000006800F400700590086840F001000860BA
:100CD000086800F001000590202069468DE8310089
:100CE000384600F0BBFD00221220114600F014FF30
:100CF000122000F003FF07B0F0BD254B9A42FAD155
:100D0000026842F480620260006800F4806005902E
:100D1000086840F020000860086800F02000059096
:100D2000086840F0010008600868694600F00100AA
:100D3000059040208DE83100164800F08FFD082016
:100D400069468DE83100384600F088FD13484FF4BD
:100D5000807C114C8105021584E823000F13C4E93F
:100D6000035283142046C4E907C56562C4E9053708
:100D700000F048FA08B1FFF720FDB463A663B2E7BC
:100D800044380240002001400000024000210140A0
:100D90000022014000140240003F01201064024084
:100DA0002DE9F041044600680D4600278168490599
:100DB0000BD58068C00508D5206C84F83C7040F0E5
:100DC000200020640120BDE8F08100F045FE0646C9
:100DD0000FE0681C0DD025B100F03EFE801BA8423C
:100DE00007D9206C84F83C7040F004002064032094
:100DF000E9E7206800688007EBD521686FF01200F2
:100E00000860206C40F4007020642068816811F054
:100E1000405F13D1A16989B9C16A11F4700F02D082
:100E2000806840050AD4206C20F480702064206C17
:100E3000C00403D4206C40F0010020640020C2E70D
:100E400018B50022009290F83C10012907D001212A
:100E500080F83C1001688B68DB0702D011E00220AB
:100E600018BD8C682A4B44F001048C60294909683C
:100E7000B1FBF3F101EB410100E0491E00910029B3
:100E8000FBD103689968C90740D0016C40F2016446
:100E9000A14341F4807101645968490505D5016C8D
:100EA00021F4005141F480510164016CC90404D55E
:100EB000416C21F00601416400E042646FF02204BD
:100EC000154980F83C201C60D1F80423D20607D0D5
:100ED00002688A420AD1936813F0405F02D005E0AD
:100EE00000680BE0936843F080439360D1F80413EB
:100EF000C9060BD400680949884207D1816811F0FE
:100F0000405F03D1816841F080418160002018BDBD
:100F100040420F001C01002000200140002201403F
:100F2000F8B50D4604460021009190F83C000128D8
:100F300007D0012084F83C0020688368DB0702D0DA
:100F400011E00220F8BD8668364B46F00106866047
:100F500035480068B0FBF3F000EB400000E0401EB5
:100F600000900028FBD120688368DB0758D0236CF1
:100F700040F20166B34343F4807323644068400544
:100F800005D5206C20F4005040F480502064206C83
:100F9000C00404D5606C20F00600606400E0616469
:100FA0006FF0220084F83C10A36B2049D963A36B37
:100FB0001F491964A36B1F49D96421680860206820
:100FC000416841F0806141602068816841F480712E
:100FD000816021681346A06B2A464C3100F084F9E9
:100FE0001549D1F80403C006206811D0884207D102
:100FF000826812F0405F03D1826842F080428260D2
:10100000D1F80403C0060BD40C492068884207D1EC
:10101000816811F0405F03D1816841F080418160B7
:101020000020F8BD40420F001C010020930300087F
:1010300017040008010400080020014000220140BC
:1010400090F83510022903D08021416501207047B6
:10105000052180F835100068016821F00101016068
:10106000002070472DE9F84304464FF00009644B17
:101070000820CDF800904FF41652A56D94F85C103E
:101080001B682E68B3FBF2F700FA01F131420FD072
:1010900021680A6852070BD50A6822F004020A6028
:1010A00094F85C108840A860606D40F001006065B5
:1010B00094F85C104FF0010808FA01F0304208D0B3
:1010C00021684969090604D5A860606D40F00200F6
:1010D000606594F85C1004208840304208D0216894
:1010E0000968890704D5A860606D40F00400606558
:1010F00094F85C1010208840304218D021680968AC
:10110000090714D5A86020680168490304D5006860
:10111000000308D5A16C07E00168C90503D4016884
:1011200021F008010160216C09B12046884794F83C
:101130005C1020208840304231D021680968C906FF
:101140002DD5A86094F8350005282068016806D0E0
:10115000490347D5006800031DD4616C1CE021F0F1
:10116000160101602068416921F080014161206C15
:1011700008B9A06C20B12068016821F00801016065
:1011800094F85C303F229A40AA6084F8349084F846
:101190003580216D1FE0E16B09B120468847606D05
:1011A00000282BD0606DC00714D0052084F83500CE
:1011B0002068016821F0010101600098401C009046
:1011C000B84203D820680068C007F6D184F834908C
:1011D00084F83580E16C002910D001B02046BDE8CC
:1011E000F04308470168C905D5D4036823F010030C
:1011F000036084F8349084F83580CCE7BDE8F88348
:101200001C0100202DE9F047044600F025FC0546AE
:1012100064B14FF0000984F83490022184F835104D
:101220002068016821F0010101600EE00120BDE8A5
:10123000F08700BF00F010FC401B052805D92021D5
:101240006165032084F83500F1E720680068C00775
:10125000F0D1D4E90020D4E90251D4E9043C284378
:1012600004F1180519430843116895E8E00140EAC4
:101270000C001C4B2843194040EA060040EA0700D6
:10128000B8F1040F40EA010003D1D4E90B1319436C
:101290000843106020680126656A4069042D20F02B
:1012A000070045EA00050CD1D4E90A01054341B124
:1012B0002046FFF7ADF920B14020606584F8356025
:1012C000B4E7206845612046FFF78EF994F85C305A
:1012D0003F229A408260C4F8549084F83560002020
:1012E000A5E700003F8010E02DE9F041044690F8AA
:1012F000340000250128A66D0ED094F835C00127D2
:10130000002084F83470BCF1010F07D0022584F866
:1013100034002846BDE8F0810220FBE7022784F86C
:10132000357060652046FFF79DF994F85C103F200A
:101330008840B0602068016841F0160101602068B3
:10134000416941F080014161206C20B12068016851
:1013500041F0080101602068016841F0010101606D
:10136000D7E7000070B5044600F076FB0546601C28
:1013700002D004480078044400F06EFB401BA042F9
:10138000FAD370BD200100202DE9FC474FF0000684
:101390000400B146009603D094F8440018B107E069
:1013A0000120BDE8FC87204684F8456000F0E4F8A1
:1013B0006748016841F480410160006800F48040A2
:1013C00001906448016821F4000101600168226A0B
:1013D00011430160206800F58050016841F001016F
:1013E000016000F039FB4FF4FA77054609E000BFD1
:1013F00000F032FB401BB84203D9032084F84400BC
:1014000068E0206800F580500068C007F0D12068CF
:10141000006920F01C0501F0FFFB4F4A4F490244D0
:101420008A4202D245F0080516E04D494D4A014472
:10143000914202D245F00C050EE04B4A4B49024462
:101440008A4209D34A4A4B491044884202D245F0A5
:10145000040501E045F010052068056100214FF406
:101460000042204600F040F94FF00105B0BBFF20DC
:10147000FFF778FF606890B300F0EEFA804641F223
:10148000883701216A46204600F0EAF800F0E4FAC5
:10149000A0EB0800B84217D800984007F1D500210A
:1014A00020464FF4805200F01FF9B8B900F0D4FA8A
:1014B00080466A460121204600F0D2F800F0CCFABE
:1014C000A0EB0800B8420BD901212046FFF7E0F855
:1014D00084F84450032084F8456062E724E018E073
:1014E00000988006E5D51F216A46204600F0B8F82E
:1014F000D0B90098C10603D54FF40061E16000E067
:10150000E660400701D5A66019E04FF48040A06076
:1015100015E0D4E90210C00840EA510082B220462A
:10152000002100F0E1F830B101212046FFF7B0F8CA
:1015300084F8445034E740F6FF70FFF713FF494644
:101540002046FFF7A5F884F84450002029E7000062
:10155000443802400438014000D3CEFEC0E1E4002C
:1015600040F1E9FD40787D0100796CFC005A62028F
:10157000001F0AFA80F0FA02F0B587B00446142181
:101580006846FEF79FFE30492068884259D12F48AF
:10159000016841F000710160016801F0007105917E
:1015A000016841F080610160016801F0806105918E
:1015B000016841F000610160016801F0006105917E
:1015C000016841F004010160016801F00401059126
:1015D000016841F001010160016801F0010105911C
:1015E000016841F002010160016801F0020105910A
:1015F000016841F04001016000680224002569464D
:1016000000F04000059003260B2732208DE8F10002
:101610000F4800F023F9862069468DE8F1000D4857
:1016200000F01CF9200369468DE8F1000A4800F03B
:1016300015F94FF4205069468DE8F100074800F095
:101640000DF907B0F0BD00000080024030380240C4
:10165000000802400000024000040240001802405E
:101660002DE9F047044690F84400914682281DD0A9
:1016700082224FF6FF7084F844204FF4F86322680A
:1016800003EA8111258A136900EAC52003F01C03CF
:101690001843014321F0020040F00105156100F0FC
:1016A000DBF9012706464FF4803811E00220BDE83F
:1016B000F08700BF00F0D0F9801B404506D3002022
:1016C00084F8447084F845000320F0E72068056939
:1016D000E807EFD12068406981B2C9F8001084F8AA
:1016E00044700020E3E700002DE9F041044690F843
:1016F000440042281ED042204FF6FF7384F8440075
:1017000096B220684FF4F867258A07EA81110269CA
:10171000466103EAC520236802F01C02104301431E
:1017200041F003051D6100F097F9012706464FF4CB
:10173000803811E00220BDE8F08100BF00F08CF994
:10174000801B404506D3002084F8447084F845008F
:101750000320F0E720680569E807EFD184F84470BA
:10176000E9E700000348016841F000410160002002
:1017700070470000103C02402DE9F0471D4D074620
:1017800014461E468946287D012808D001204CF2C7
:10179000503828754046FFF7BBF818B126E0022004
:1017A000BDE8F08737B1012F09D0022F0CD0032FED
:1017B00014D10EE04846E1B2FFF72EF80EE0A1B2D8
:1017C0004846FFF751F809E021464846FFF760F820
:1017D00004E0224633464846FFF730F84046FFF71C
:1017E00097F805490A6822F001020A60002129756C
:1017F000D6E70000C0580120103C024008490020F4
:1018000010B50A68002A09DA054A064B0C3A064C5C
:10181000136014600968002900DA012010BD00007F
:10182000103C024023016745AB89EFCD0448F7EE39
:10183000000A90ED0D0A30EE200A80ED0D0A704787
:1018400008000020044910B50A68024202D008606E
:10185000FFF7ECFF10BD0000143C01402DE9F84FEC
:10186000DFF89CE100224FF001084FF0030B4FF02E
:101870000F0A00BF0B6808FA02F42340A34271D19B
:101880004D68022D01D0122D0FD1D5080E695707D2
:1018900000EB8505A9462D6AFF0E0AFA07FCBE403B
:1018A00025EA0C052E43C9F820600F79550006681B
:1018B0000BFA05FC07F0030726EA0C06AF40374396
:1018C00007604E68012E05D0022E03D0112E01D0E4
:1018D000122E0ED18668CF6826EA0C06AF40374339
:1018E000876046680F79A643C7F3001797403743D0
:1018F0004760C4688E6824EA0C04AE402643C66084
:101900004C68E40075D53F4C256845F4804525605A
:10191000246822F00306950704F4804400943A4CAE
:101920002D0F2644D6F80848DFF8E0C00AFA05F77C
:10193000604524EA070401D100272EE0344FB84265
:1019400001D1012729E0334FB84201D1022724E019
:10195000314FB84201D103271FE0304FB84202D1C6
:1019600004271AE045E02E4FB84201D1052714E0C4
:101970002C4FB84201D106270FE02B4FB84201D1BE
:1019800007270AE0294FB84201D1082705E0284F70
:10199000B84201D1092700E00A27AF402743754626
:1019A000C6F808784E68DEF80040F60324EA03041F
:1019B00000D51C43124E2C60361D4D683468AD03B3
:1019C00024EA030400D51C430D4F346008374D68EA
:1019D0003C68ED0224EA030400D51C43084D3C603A
:1019E0000C354E682C68B60224EA030400D51C436B
:1019F0002C60521C102AFFF43DAFBDE8F88F0000A8
:101A0000003C0140443802400030014000000240E8
:101A10000004024000080240000C02400010024096
:101A20000014024000180240001C02400020024046
:101A3000002402400069084000D00120704742693C
:101A400031EA020200D10904816170470AB1816163
:101A500070470904FBE700000148806870470000F8
:101A6000200100200248816802781144816070479B
:101A700020010020032010B500F06EF8002000F0D7
:101A800005F800F023F8002010BD000070B50D4DE2
:101A900004464FF47A700C4A29781268B0FBF1F0D2
:101AA000B2FBF0F001F0ACFA48B9102C07D20022DA
:101AB0002146501E00F030F800206C6070BD0120FF
:101AC00070BD0000200100201C0100200A4808B55C
:101AD000016841F080510160006800F08050009082
:101AE0000548001D016841F480410160006800F470
:101AF0008040009008BD000040380240002809DB0B
:101B0000410900F01F028900012001F1E02190400D
:101B1000C1F80001704700000E4BF0B41B680D4681
:101B2000C3F30223C3F10706042E00D90426191DAE
:101B3000072901D2002300E0DB1E012404FA06F18C
:101B40009C40491E2940641E994014402143F0BC2A
:101B500004F067BC0CED00E0064900F0070210B588
:101B60004FF6FF040868044B204040EA0220184367
:101B7000086010BD0CED00E00000FA0501680123CB
:101B8000C0F8FC33002280F8F4238869044A40F04E
:101B900000608861486D1043486500207047000070
:101BA0000300001070B5164D0446A1B1012911D1F2
:101BB0002068D0F8001E41F00101C0F8001ED4F8E2
:101BC000000403F06BFD206A002803D0286840F071
:101BD0000600286070BD206A28B102F023FC286846
:101BE00020F0060028602068D0F8001E21F00101D6
:101BF000C0F8001ED4F80004BDE8704003F0F3BC48
:101C000010ED00E00068416200207047F0B5036805
:101C10005D6A39B19F6A4C1E00204FF4827605EB55
:101C200017450BE045EA0240986210E0471C06EBBE
:101C3000800053F800C0F8B205EB1C45A042F5D374
:101C40004FF4807000EB810045EA02421A500020F8
:101C5000F0BDD0F8000403F034BCC1EBC10200EBCE
:101C60008202D0F80004926C03F089BBC1EBC10280
:101C700000EB8202D0F80004D2F8082203F0E0BBA7
:101C8000D0F8000403F01FBC01F00F020B0670B582
:101C9000C2EBC20104464FF001004FF0000504EB17
:101CA000810103D581F83D003C3103E081F8FD510D
:101CB00001F5FE710A7094F8BC23012A08D084F85B
:101CC000BC03206803F072FF002084F8BC5370BD91
:101CD000022070BD70B54268044601F00F009042CA
:101CE00001D9012070BD01F00F024FF000050B0675
:101CF000C2EBC2014FF0010204EB810103D581F870
:101D00003D203C3103E081F8FD5101F5FE718D70FD
:101D1000087094F8BC03012808D084F8BC2320681C
:101D200004F020F9002084F8BC5370BD022070BD7F
:101D300001F00F01C1EBC10100EB8100D0F81402EA
:101D400070472DE9F04101F00F0604460D064FF0F3
:101D50000100C6EBC6014FF0000504EB810103D57D
:101D600081F83D003C3103E081F8FD5101F5FE7141
:101D70004F788A60CB700E7007B1CE80022B00D1F5
:101D80000D7194F8BC23012A09D084F8BC032068A3
:101D900003F060FE284684F8BC53BDE8F0810220C1
:101DA000FBE770B501F00F050C460026C5EBC50139
:101DB00000EB8101C1F80822C1E9843681F8FD6198
:101DC00081F8FC5101F5FE710369012B00D10A6114
:101DD0002207027C006803D004F01CF9002070BDCB
:101DE00004F00CF8FAE770B50D464168044605F0BA
:101DF0000F00884201D9012070BD29064FF000066E
:101E00004FF0010207D5C0EBC00104EB810181F85E
:101E10003D203C3107E0C5EBC50104EB810181F8B1
:101E2000FD6101F5FE718A70087094F8BC03012809
:101E300007D084F8BC23206804F0C0F8280702D03B
:101E400007E0022070BD217C04F57172206804F067
:101E50005DF8002084F8BC6370BD2DE9F04101F00D
:101E60000F050C460026C5EBC501012700EB8101DB
:101E70008A64C1E9143681F83D7001F83C5F03695A
:101E8000012B00D10A612207027C006804D004F013
:101E9000C1F80020BDE8F08103F0B0FFF9E70000D1
:101EA0002DE9FC5F04460068002681464D4604F09B
:101EB000CAF900287ED1206804F0F1F9002879D011
:101EC000206804F0ECF9800704D52068416901F02E
:101ED00002014161206804F0E2F901034FF0010BB7
:101EE00004F57170009077D5206804F0B7F9DFF839
:101EF00038A407466EE0F8076AD02068F1B204F013
:101F0000C6F98046C00707D005EB4611C1F808BBEB
:101F10003146204602F0C2F95FEA087034D52068E5
:101F20002169012900EB4611006C0190D1F8080BE2
:101F300010D0FE4B019A9A4215D1000403D54FF4FC
:101F40000040C1F8080B204600F0FEFA2069012885
:101F500010D014E0019A524505D9000403D54FF47E
:101F60000040C1F8080B204600F0EEFA01985045F9
:101F7000ECD804E020680121009A03F0C7FF05EBCC
:101F800046110820C1F8080B5FEAC86004D505EBCC
:101F900046111020C1F8080B5FEA88600FD5206950
:101FA000012804D120680121009A03F0AFFF05EB5E
:101FB000461101E0C7E10FE02020C1F8080B5FEAFD
:101FC000884005D505EB46114FF40050C1F8080BC9
:101FD0007F08761C002F8ED1206804F060F9400342
:101FE0004FF0000A60D5206804F031F9002607465A
:101FF00058E0F80754D02068F1B204F036F9804672
:10200000C00726D0D5F8342806F00F0C05EB461390
:102010000BFA0CF08243C5F83428C3F808B92069DC
:10202000012807D1C6EBC60004EB8000D0E91121DE
:10203000114481642046F1B2FFF70FFE20690128A8
:1020400007D136B9206D20B920680121009A03F02C
:102050005DFF5FEA087004D505EB46110820C1F862
:1020600008095FEAC86004D505EB46111020C1F8E5
:1020700008095FEA486004D505EB46114020C1F825
:1020800008095FEA887004D505EB46110220C1F803
:1020900008095FEA086003D53146204602F06CF972
:1020A0007F08761C002FA4D1206804F0F8F80028DF
:1020B00011DAD5F8040820F00100C5F8040894F8F6
:1020C000F40301283BD0204600F022FA2068416941
:1020D00001F000414161206804F0E1F800050BD5F2
:1020E000D5F80808C00702D0204600F049FA206859
:1020F000416901F400614161206804F0D0F80001F9
:102100000AD52068416901F00061416194F8F40347
:10211000E0B1204600F034FA206804F0C0F8C004B2
:102120006AD5D5F8040820F00100C5F80408206835
:10213000102104F069F800214FF67F3227E00021DA
:10214000204684F8F4A3FFF72DFDBFE784F8F4B32D
:102150002068406D0121C0F38300C4F8F8032046D5
:10216000FFF720FDD8E700BF05EB4110C0F80829B4
:10217000D0F8003923F40013C0F80039C0F8082B58
:10218000D0F8003B23F40013C0F8003B491C606802
:102190008842E9D8D5F81C0840F00110C5F81C08A1
:1021A000206B60B1D5F8840840F00B00C5F88408B6
:1021B000D5F8440840F00B00C5F844080CE0D5F809
:1021C000140842F22B010843C5F81408D5F810088A
:1021D00040F00B00C5F81008D5F8000820F4FE60A8
:1021E000C5F80008217C2068009A03F08FFE206863
:1021F000416901F480514161206804F050F8800485
:1022000017D5206803F066FC206804F00FF858B377
:102210000320E06000F000FD227B0146206804F00E
:1022200079F8204600F05EF92068416901F4005118
:102230004161206804F033F8C00639D52168886907
:1022400020F010008861D9F8207007F00F01C7F363
:102250004340C1EBC101022804EB810505F5FE7581
:1022600005D0062815D01EE0C4F80CA0D2E747F62A
:10227000F0710F4217D0C7F30A12E96817464846B3
:1022800004F011F8A969E8683944A9613844E860A4
:1022900009E000990822484604F005F8A969C7F347
:1022A0000A100844A8612068816941F01001816129
:1022B000206803F0F4FF000707D5204600F02CF952
:1022C0002068416901F008014161206803F0E7FFDF
:1022D000C00208D52046F1B200F037F82068416905
:1022E00001F480114161206803F0D9FF800208D514
:1022F0002046F1B200F02DF82068416901F4001188
:102300004161206803F0CBFF400007D52046FFF76E
:10231000A0FC2068416901F080414161206803F020
:10232000BEFF40070FD503E00A30544F0A31544F27
:1023300020684568680702D52046FFF7A1FC2068A1
:10234000416829434160BDE8FC9FD0F8000403F0D8
:1023500009B9D0F8000403F007B900002DE9F041F5
:1023600004008AB004D094F8BD03002520B108E031
:1023700001200AB0BDE8F081204684F8BC5300F08B
:1023800063F8032084F8BD03206803F031FD04F1F5
:102390001001684628228846FDF77BFF94E80F006D
:1023A00003F0B2FB0227E0BB2068002103F089FFA5
:1023B0000020012611E000BFC0EBC001421C04EB6D
:1023C000810181F83D6081F83F504D648D640D6559
:1023D00081F83C00A1F84200D0B261688142EBD89C
:1023E000002011E0C0EBC001421C04EB810181F828
:1023F000FD5181F8FF51C1F80452C1F80852C1F8EB
:10240000105281F8FC01D0B261688142EAD82822DA
:1024100041466846FDF73DFF94E80F0003F01EFCBF
:1024200010B184F8BD73A3E7606A84F8385084F86B
:10243000BD63012802D12046FFF7A0FB206803F00E
:1024400001FC002095E7000030B587B00446142158
:102450006846FDF737FF2068B0F1A04F3BD11F4819
:10246000016841F0010101600068002402211C4D57
:1024700000F0010005904FF4E8500A238DE81300A6
:1024800003226946CDE903232846FFF7E7F96815DB
:102490006946CDE9000428460294FFF7DFF90F48AA
:1024A000001D016841F080010160006800F08000BB
:1024B00005900A481430016841F4804101600068C9
:1024C0000022114600F4804005904320FFF724FBD2
:1024D0004320FFF713FB07B030BD00003038024047
:1024E0000000024070B50446C068012570B10228A2
:1024F00001D0FEF762F9D4F80004294603F085F80C
:10250000D4F80004BDE8704003F045B80025F2E7B8
:10251000D0F8000403F067B8D0F8000403F069B8FD
:1025200010B5044690F8BC0301280BD0012084F8B4
:10253000381084F8BC03206803F0DAFE002084F829
:10254000BC0310BD022010BDD0F8002400F571714D
:10255000104603F066B810B5044690F8BC03012895
:102560000CD0012084F8BC03206803F05FFB2068D6
:1025700003F034FE002084F8BC0310BD022010BD1F
:1025800010B50446D0F8000403F088F82068D0F8AD
:10259000001E41F00101C0F8001E206A002804D08E
:1025A0000248016841F00601016010BD10ED00E035
:1025B0002DE9F84F04460078DFF824944FF0000628
:1025C0003746C0070ED0D9F8001021F40001C9F831
:1025D0000010D9F80010626B1143C9F80010606B4D
:1025E00000B90126FE4D2068843500030ED5E16B4D
:1025F000286820F4401008432860E06BB0F5801F85
:1026000001D010B102E0012600E0012720684FF45C
:10261000800BC0020CD5216C286820F440000843D0
:102620002860206C584501D1012601E000B901273E
:102630002068C10100D50126800666D5E8483830FB
:10264000016841F0805101600068DFF898A300F054
:1026500080500090DAF8001041F48071CAF8001040
:10266000FFF7FAF9804605E0FFF7F6F9A0EB08005E
:1026700064287DD8DAF80000C005F5D5DFF860835E
:1026800008F16808D8F8000010F440702AD0218EB4
:1026900001F44071814225D0D8F80010D8F800200C
:1026A00021F4407142F48032C8F80020D8F80020AC
:1026B00022F48032C8F80020C8F80010D8F80000D2
:1026C000C0070FD0FFF7C8F9824607E0FFF7C4F94B
:1026D000A0EB0A0141F288308142CAD8D8F8000044
:1026E0008007F3D5206BC0F3012103297ED0D9F8F0
:1026F000001021F4F811C9F80010228ED8F800104B
:10270000C2F30B021143C8F800102078C00607D5A9
:10271000286820F0807028602868A16B0843286032
:102720002188AF488830490405D5626E016821F4DC
:102730004031114301602188090405D5A26E01686A
:1027400021F44021114301602168C90305D5E26EDF
:10275000016821F44011114301602168890305D506
:10276000226F016821F4400111430160217800E0EB
:1027700034E1490605D5626C016821F0030111437B
:1027800001602178090605D5A26C016821F00C01D1
:10279000114301602188C90505D5E26C016821F06B
:1027A0003001114301602188890505D5226D01683A
:1027B00021F0C001114301602188490505D5626DF2
:1027C000016821F44071114301602188090505D594
:1027D000A26D016821F44061114301602188C904A0
:1027E00007D5E26D016821F4405100E05FE011433C
:1027F00001602188890405D5226E016821F44041D9
:10280000114301602168490205D5A26F016821F0DA
:1028100080611143016021684FF0006A890209D587
:10282000E26F016821F0006111430160E16F5145E1
:1028300000D1012721680A0700D50127490305D5E2
:10284000626F016821F04071114301602168090243
:1028500006D5D4F88020016821F080511143016031
:102860002168490106D5D4F88420016821F000517F
:10287000114301602068000106D5D4F8881028684B
:1028800020F00070084328602068C00006D5D4F806
:102890008C10286820F0806008432860DFF8489199
:1028A000012E0ED02068B0F1007F0AD08FE04F4A91
:1028B000D9F80030104023F4F8120243C9F8002080
:1028C0001BE7D9F800004E4620F08060C9F80000F0
:1028D000FFF7C2F8804605E0FFF7BEF8A0EB08005E
:1028E00064287BD830680001F6D421783C487C30DD
:1028F000C90712D0616B81B9237A62680168D0F888
:1029000000C09201C1F3014142EA0142CCF30361EC
:1029100042EA016141EA0371016021680A0303D5BB
:10292000E26BB2F5801F04D0C9021AD5216C59455B
:1029300017D16368016894F80CC002689B01C1F369
:10294000014143EA0141C2F3027241EA0C6141EAEA
:10295000027101602968626A21F01F01521E114351
:1029600029602168C90110D5238A62680168D0F8FE
:1029700000C09201C1F3036142EA034242EA0162EC
:10298000CCF3027142EA01710160216889010CD522
:102990006168228A237B94F808C0890141EA0241D8
:1029A00041EA036141EA0C7101603168B04641F0CF
:1029B00080613160FFF750F8064604E0FFF74CF8FD
:1029C000801B64280AD8D8F800000001F6D5E7B3C8
:1029D000D9F800004E4620F0805009E07BE000006E
:1029E000083802400070004000380240FFFCFF0F32
:1029F000C9F80000FFF730F8074604E0FFF72CF8AD
:102A0000C01B642867D83068C0438000F6D52168B1
:102A100035480A0301D5E26B1AB1C9021DD5216CF4
:102A2000D9B963690168277E02689B01C1F301413E
:102A300043EA0143C2F3027143EA076242EA0171C9
:102A4000016029686FF0FF0300E04BE0A26A21F407
:102A5000F85103EB0222114329602168890212D543
:102A6000E16F51450FD1238C6269016807689201BB
:102A7000C1F3036142EA034242EA0162C7F3027111
:102A800042EA017101602178090716D5616902687F
:102A9000D0F800C08B01277FC2F30362CCF3014161
:102AA00043EA014141EA026141EA07710160286895
:102AB000E16A20F4403008432860306840F08050DC
:102AC0003060FEF7C9FF044608E000BFFEF7C4FF10
:102AD000001B642802D90320BDE8F88F3068C0438A
:102AE0008000F3D40020F7E7883802402DE9F04752
:102AF00005000F4663D0444E306800F00F00B84226
:102B000009D2306820F00F0038433060306800F0A0
:102B10000F00B84253D128683C4C810712D54007BA
:102B200003D5206840F4E05020602878000703D5E2
:102B3000206840F460402060A968206820F0F00020
:102B4000084320602878C0072AD0304968680839CF
:102B5000012810D00968022810D0890700292EDA30
:102B6000216821F0030101432160FEF775FF8046D3
:102B700041F288390DE009688903EFE78901EDE743
:102B8000FEF76AFFA0EB0801494502D90320BDE822
:102B9000F0876868216801F00C01B1EB800FEFD17C
:102BA000306800F00F00B8420BD9306820F00F00F9
:102BB00038433060306800F00F00B84201D0012087
:102BC000E5E72878400705D5E968206820F4E0505B
:102BD000084320602878000706D52869216821F479
:102BE000604141EAC000206000F03CF82168084ADA
:102BF000C1F30311515CC840064908600020FEF78C
:102C000045FF0020C3E70000003C024008380240B6
:102C10003E6D00081C01002001480068704700005C
:102C20001C0100200449054809680068044AC1F3F2
:102C30008221515CC8407047083802401C010020C6
:102C40004E6D00080449054809680068044AC1F34C
:102C50004231515CC8407047083802401C010020D6
:102C60004E6D0008154910B51548096811F00C02A1
:102C700013D04110042A0FD0082A0ED10F4C241F64
:102C80002268236802F03F025B0207D52068C0F388
:102C90008810A0FB010106E0084610BD2168C1F3C1
:102CA0008811A1FB00010023FDF7C2FA2168C1F3DE
:102CB0000141491C4900B0FBF1F010BD0838024049
:102CC0000024F4002DE9F84F05004FF000076ED006
:102CD0002878DFF82093A9F1040AC007AAF10404B8
:102CE0004CD0D9F800104846C1F38101012908D021
:102CF0000068C0F3810002280AD1DAF8000040021F
:102D000006D52068800339D568680028DFD035E013
:102D10006868B0F5803F0BD010B1B0F5A02F11D08E
:102D2000206820F480302060206820F4802002E0B9
:102D3000206840F480302060686890B1FEF78CFE17
:102D400006460AE0206840F480202060F0E700BFDB
:102D5000FEF782FE801B642872D820688003F7D5B6
:102D60000CE0FEF779FE064605E000BFFEF774FEB4
:102D7000801B6428F0D820688003F7D42878800767
:102D800042D5D9F80010484611F00C0F08D0006861
:102D9000C0F3810002280BD1DAF80000400207D40A
:102DA0002068800718D5E868012800D114E01EE1EA
:102DB000E8680028206817D040F001002060FEF786
:102DC0004BFE064605E000BFFEF746FE801B0228CC
:102DD000C2D820688007F7D52869216821F0F8015A
:102DE00041EAC00020600FE020F001002060FEF703
:102DF00033FE064605E000BFFEF72EFE801B0228CC
:102E00001ED820688007F7D42878000729D579488C
:102E100069696C3000298046016812D041F00101D7
:102E20000160FEF719FE064605E000BFFEF714FE3E
:102E3000801B022804D8D8F800008007F6D510E0DF
:102E400089E021F001010160FEF706FE064604E07C
:102E5000FEF702FE801B02287DD8D8F8000080070C
:102E6000F6D4287840076BD5DFF8888108F1380858
:102E7000D8F80000C0000BD4D8F8001041F0805101
:102E8000C8F80010D8F80000012700F0805000902A
:102E900059480168C90512D40168834641F480711C
:102EA0000160FEF7D9FD064605E000BFFEF7D4FD40
:102EB000801B64284FD8DBF80000C005F6D54D4EC6
:102EC000A868683601280AD008B1052811D03068F2
:102ED00020F001003060306820F0040002E030682B
:102EE00040F001003060A868A0B1FEF7B5FD834650
:102EF0000CE0306840F004003060F0E7FEF7ACFD15
:102F0000A0EB0B0141F28830814268D8306880071D
:102F1000F4D50EE0FEF7A0FD834607E0FEF79CFD2A
:102F2000A0EB0B0141F28830814258D8306880070D
:102F3000F4D42FB1D8F8001021F08051C8F8001057
:102F4000A869E0B3D9F80010C1F3810102294ED07D
:102F50000228206800E042E020F08070206003D06A
:102F6000FEF77AFD05463DE0FEF776FD064604E0F5
:102F7000FEF772FD801B022831D820688001F7D44B
:102F8000D5E90921DFF874C0D5E9070695F8303096
:102F90004F0895F82C1030430CEB074545EA821298
:102FA000104340EA016040EA0370CAF8000020685C
:102FB00040F080702060FEF74FFD054605E014E00C
:102FC000FEF74AFD401B022809D820688001F7D58A
:102FD0000BE000BFFEF740FD401B022802D9032092
:102FE000BDE8F88F20688001F4D40020F8E70120C4
:102FF000F6E7000008380240007000400000FFFFC4
:10300000401EB0F1807F10B501D3012010BD4FF0FC
:10301000E02460610F21601703F003FA0020A06133
:103020000721216110BD70477047704770B590F857
:103030003C20012A24D0134C012580F83C50022268
:1030400080F83D2002685368A242966802D00E4C78
:10305000A24203D14C6823F4700323430C6823F08D
:10306000700389681C435460002326F080060268C0
:103070003143916080F83D5080F83C30184670BD77
:10308000022070BD000001400004014010B50400A2
:1030900003D094F83D0010B107E0012010BD0020DE
:1030A00084F83C00204600F00DF8022084F83D0032
:1030B0002068211D01F038FA012084F83D0000202D
:1030C00010BD000008B5026821482249824207D19C
:1030D000086840F001000860086800F001000DE099
:1030E0001D48B2F1804F0BD01C4B9A421AD1016897
:1030F00041F002010160006800F00200009008BD8C
:10310000016841F00101016000680022114600F0F1
:10311000010000901C20FEF7FFFCBDE808401C20C9
:10312000FEF7ECBC0E4B9A4207D1016841F0040156
:103130000160006800F00400E0E70A488242DED146
:10314000086840F400300860086800F40030D5E7F3
:103150000000014044380240403802400004004072
:1031600000080040004401400A4B022180F83D1055
:1031700001688A681A40062A06D0B2F5803F03D05B
:103180000A6842F001020A60012180F83D10002027
:1031900070470000070001000168094ACB6843F04E
:1031A0000103CB60016888681040062806D0B0F59E
:1031B000803F03D0086840F001000860002070479D
:1031C0000700010070B5044690F83C00012817D0B4
:1031D000324B012584F83C50022084F83D002268DF
:1031E0009068184020F47F4090600868502830D0E4
:1031F0000DDC20284DD005DC98B310283BD148E0E9
:10320000022070BD302844D0402834D139E06028F5
:1032100028D0702806D0B0F5805F2CD0B0F5005FC4
:1032200029D10AE04A682068D1E9021301F0EFF9D8
:103230002068816841F0770109E04A682068D1E997
:10324000021301F0E4F92068816841F48041816053
:1032500011E0CA684968206801F020FB206850210D
:1032600007E016E0CA684968206801F028FB20687A
:10327000602101F0D5F9002084F83D5084F83C002D
:1032800070BDCA684968206801F008FB20684021C9
:10329000EFE7226801461046EBE7000088FFFEFFDB
:1032A000704770B50446006800250169C943890765
:1032B00015D4C168C943890711D4EA1E02610121EE
:1032C0002177206880698007204602D0FFF7E8FF59
:1032D00004E000F001F9204600F0AFF925772068FE
:1032E0000169C943490717D4C168C943490713D4C1
:1032F00002216FF00402026121772068806910F4D6
:10330000407F204602D0FFF7CBFF04E000F0E4F856
:10331000204600F092F9257720680169C943090722
:1033200016D4C168C943090712D404216FF00802FA
:10333000026121772068C0698007204602D0FFF72C
:10334000AFFF04E000F0C8F8204600F076F92577DA
:1033500020680169C943C90617D4C168C943C906B1
:1033600013D408216FF01002026121772068C06930
:1033700010F4407F204602D0FFF792FF04E000F0F7
:10338000ABF8204600F059F9257720680169C94358
:10339000C90708D1C168C943C90704D1891E0161A1
:1033A000204600F071F920680169C943090609D473
:1033B000C168C943090605D46FF080010161204648
:1033C000FFF732FE20680169C943C90509D4C16805
:1033D000C943090605D46FF4807101612046FFF7E7
:1033E00022FE20680169C943490609D4C168C9435E
:1033F000490605D46FF040010161204600F06EF9E6
:1034000020680169C94389060BD4C168C94389068C
:1034100007D46FF0200101612046BDE87040FFF73E
:1034200004BE70BD10B586B0044614216846FCF792
:1034300049FF224A00212368214893424FF00202AB
:1034400010D1036843F001030360006800F001003D
:10345000059040200090CDE90121CDE903121948E3
:10346000694612E0184CA34213D1036843F00803E5
:103470000360006800F008000590A0140090CDE9FA
:103480000121CDE9031211486946FEF7E7F906B0BC
:1034900010BD0F4CA342FAD1036843F0020303604E
:1034A000006800F002000590A01500900323094871
:1034B000CDE90121CDE903136946E6E700040040A8
:1034C000303802400000024000080040000C02407A
:1034D0000044014000040240704770B5044690F873
:1034E0003C000D4601280ED0012684F83C600220E5
:1034F00084F83D000C2A45D007DC5AB1042A1BD0C1
:10350000082A78D12CE0022070BD102A4ED0142A4F
:1035100071D15DE0206801F08BF82068816941F08D
:10352000080181612068816921F0040181612068BE
:103530002A698169114311E0206801F0B3F820681D
:10354000816941F4006181612068816921F48061B1
:10355000816120682969826942EA012181614AE02A
:10356000206801F0DBF82068C16941F00801C16101
:103570002068C16921F00401C16120682A69C1691C
:10358000114311E0206801F005F92068C16941F498
:103590000061C1612068C16921F48061C161206856
:1035A0002969C26942EA0121C16124E0206801F071
:1035B0001DF92068416D41F0080141652068416DA9
:1035C00021F00401416520682A69416D114311E031
:1035D000206801F037F92068416D41F400614165D0
:1035E0002068416D21F48061416520682969426D40
:1035F00042EA01214165002084F83D6084F83C00E6
:1036000070BD10B5040003D094F83D0010B107E080
:10361000012010BD002084F83C00204600F00CF88A
:10362000022084F83D002068211D00F07DFF01206C
:1036300084F83D00002010BD7047704710B501228E
:103640000446006800F0D6FF0C492068884202D08A
:103650000B49884203D1416C41F400414164206828
:10366000084A81681140062906D0B1F5803F03D091
:10367000016841F001010160002010BD000001401F
:1036800000040140070001000F489FED102BB7EE2A
:10369000003B90ED0D0A9FED0F1ADFED0F0AB7EE1C
:1036A000C05A82EE054B83EE042BB7EEC20B80EDC1
:1036B0000E0A20EE011ABCEEC10A10EE101A0170BB
:1036C000C0ED0D0A70470000080000209A999999F2
:1036D000999949400000C8420000000070477047B7
:1036E0002DE9F041026804460025D069116893680D
:1036F00010F00F0F5BD003F0010601F49077374311
:1037000069D0C70707D0CF0505D501271762E26F3B
:1037100042F00102E267820708D5DA0706D027687F
:1037200002223A62E26F42F00402E267420708D5E1
:10373000DA0706D0236804221A62E26F42F002021E
:10374000E26702070AD501F02002324306D023685F
:1037500008221A62E26F42F00802E267E26F002A72
:1037600032D0800605D5880603D5216E09B12046E2
:1037700088472168E06F8968490601D4000725D58C
:10378000204601F086F920688168490619D58168CC
:1037900021F040018160E06E98B11A490165E06E48
:1037A000FDF74EFC00280FD0E06E016D06E08306A9
:1037B00011D58B060FD5216E12E02046BDE8F041F1
:1037C00008472046FFF78BFFBDE8F0812046FFF752
:1037D00086FFE567F8E7030605D50B0603D5616E9E
:1037E0000029EAD1F0E74006EED54806ECD513688B
:1037F0002021204623F0400313606167656600F0D6
:10380000A9F9E1E7F549000810B5040002D0606F9E
:1038100010B107E0012010BD002084F870002046A0
:1038200000F026F8242060672068016821F001017B
:103830000160204601F046F90128ECD0606A10B121
:10384000204601F055F82068416821F4904141601C
:103850002068816821F02A0181602068016841F0B8
:10386000010101602046BDE8104001F0A5B800004C
:103870002DE9F04786B0054614216846FCF722FD85
:103880005248002451490222514F0323D5F800C069
:1038900010394605BC454FF480694FF4807A34D125
:1038A000076847F400270760006800F400200590CF
:1038B000086840F0040008600868082100F004006F
:1038C00005909802CDE903318DE81500414869461D
:1038D000FDF7C4FF404F414938463960C7E90164EC
:1038E000C7E903497C61C7E9064A3C627C62FDF78F
:1038F00089FC08B1FCF761FF0022EF663420114615
:10390000BD63FEF709F934203CE0DFF8D4800727D7
:10391000C445DFF8D0803AD1D0F800C04CF4003C68
:10392000C0F800C0006800F400300590086840F05E
:10393000080008600868694600F0080005906020EB
:103940008DE81500CDE903374046FDF787FF264F88
:103950002249384648313960C7E90164C7E903495B
:103960007C61C7E9064A3C627C62FDF74BFC08B10A
:10397000FCF723FF0022EF6626201146BD63FEF709
:10398000CBF82620FEF7BAF806B0BDE8F087174D51
:10399000AC45F9D1056845F480250560006800F460
:1039A00080200590086840F00800086008686946B3
:1039B00000F0080005904FF440708DE81500CDE947
:1039C00003374046FDF74AFFDEE70000403802407B
:1039D000004C004000080240603F0120406002406F
:1039E00000440040000C0240C03F0120004800405D
:1039F00070B50446806F20283FD149B342B394F894
:103A00007000012839D0E06E012684F8706000252E
:103A100061652223A4F85820E567A367D0B118494F
:103A20001346C163E16E17480864E16E1648C86426
:103A3000E06E0565666D2168E06E32462431FDF763
:103A400053FC38B11021E167202084F87050606782
:103A5000012070BD84F870502068016841F48071C5
:103A600001602068816841F00101816020688168FF
:103A700041F040018160002070BD022070BD000057
:103A80004F4A0008894A0008094A00080248416A6A
:103A9000491C4162704700000800002070472DE972
:103AA000F8430446406F1F4616460D4620284FD166
:103AB000CDB1C6B194F87000012849D0012284F834
:103AC000702021214FF00008C4F87C806167FDF769
:103AD000C3FF8146A068A4F85060A4F85260B0F516
:103AE000805F03D004E00120BDE8F883206910B1B5
:103AF0002E46002510E000260EE08021204601F031
:103B00000BF9B8B9C6B116F8010B21688862B4F890
:103B10005200401EA4F85200B4F852004B464FF039
:103B2000000200970028E8D14FF04001204601F044
:103B3000F3F838B10320D7E735F8020B2168C0F35A
:103B40000800E3E720216167002084F87080CBE75C
:103B50000220C9E77047FEE7F0B500230A251C469E
:103B60003026372711E000BFB5EB107F02D906EBF6
:103B7000107C01E007EB107C01F813C001EB430C53
:103B800000015B1C8CF80140DBB29342ECD3F0BD2A
:103B90007FB5134800240125104900942B0401949B
:103BA000029403941A02016004618461C0E9013245
:103BB0000C4980F82040C0E90A14C561C46080F84F
:103BC00030404561FDF726F8022000946946CDE9B2
:103BD00001500348FCF7C8FE7FBD000000200140F3
:103BE000C83A01200100000F1FB513480021114AF7
:103BF0000124009101912304029103910260C0E924
:103C00000131016181610D4A80F82010C0E90A216B
:103C1000C461C16080F830104461FCF7FBFF0321F0
:103C2000052000900448CDE901416946FCF79CFE5F
:103C30001FBD000000210140103B01200100000FCA
:103C40007FB5184800214FF48032154D00910124B2
:103C50001302019102911603039105600225C0E948
:103C6000012304614FF01062816180F82010C5616A
:103C7000C160C0E90A2680F830404161FCF7CAFF04
:103C800003206946CDE9000406480294FCF76CFE67
:103C900004206946CDE900050248FCF765FE7FBDBA
:103CA00000220140583B0120154808B5016841F445
:103CB00000110160016801F400110091016841F4F4
:103CC0008001016000680022114600F4800000902D
:103CD0000D20FDF721FF0D20FDF710FF0022102021
:103CE0001146FDF719FF1020FDF708FF00223820CC
:103CF0001146FDF711FFBDE808403820FDF7FEBE74
:103D0000303802400F4801230D4A002130B4C0E989
:103D10000023018280224469E12321701404456953
:103D20006A70426993704269D17042691171426947
:103D300051718161C0E9071430BCFDF725BB00005B
:103D400000800240A03B01202DE9F04F87B01421F4
:103D50006846FCF7B7FA6748016841F01001016056
:103D6000016801F010010591016841F00401016052
:103D7000016801F004010591016841F02001016032
:103D8000016801F020010591016841F080010160A6
:103D9000016801F080010591016841F001010160B5
:103DA000016801F001010591016841F00201016023
:103DB000016801F002010591016841F0080101600C
:103DC000016801F008010591016841F040010160BE
:103DD00000680022484F142100F04000059038464A
:103DE000FDF734FEDFF814B14FF48178002241462C
:103DF0005846FDF72BFE4FF48149414800224946C1
:103E0000FDF724FE3F4800227021FDF71FFE00242D
:103E10006946012514200090CDE9015438460394E9
:103E2000FDF71CFD0226694628208DE85100384622
:103E3000FDF714FD344F6803DFF8D0A06946029403
:103E4000CDE900075046FDF709FD00956946CDE92B
:103E500001745846FDF702FDCDF800806946CDE9B2
:103E6000015458460394FDF7F9FC082069468DE893
:103E700051005846FDF7F2FC042069468DE85100D8
:103E80005046FDF7EBFC4FF440506946CDE9000485
:103E900058460294FDF7E2FCCDF800906946CDE962
:103EA000015417480394FDF7D9FC30200090CDE968
:103EB0000154144869460394FDF7D0FC4020039454
:103EC0008DE861000F486946FDF7C8FC802069460F
:103ED000CDE900040B480294FDF7C0FC0022062047
:103EE0001146FDF719FE0620FDF708FE07B0BDE8F4
:103EF000F08F0000303802400010024000140240F1
:103F000000040240001802400000111000080240A6
:103F100010B588B01C216846FCF7D4F9104864211C
:103F200000240E4B4FF4C852C0E902410461846181
:103F3000C0E90032FFF7AAF80948FFF762FB6020EA
:103F40006946CDE900040648002202940494FFF774
:103F5000C4FA0348FFF766FA08B010BD00440140F8
:103F6000E83C012010B588B01348002411494FF4F3
:103F7000FA42059432230694039404940094019425
:103F8000029480E81600C0E9033444618461FFF7BD
:103F90007DF84FF480500390074803A9FFF712F90A
:103FA000202001048DE8130003486946FFF73EF81E
:103FB00008B010BD00000140E83B012010B588B0FA
:103FC000124800244FF0804100944FF4FA420194CB
:103FD000C8230294039404940594069480E8160080
:103FE000C0E903348461FFF751F84FF4805000902A
:103FF00006486946FFF7E6F820200490034804A924
:104000000694FFF713F808B010BD0000283C01200B
:1040100010B58EB000241C21009407A801940294CE
:104020000394049405940694FCF74CF91648642113
:104030004FF4C852134BC0E9024104618461C0E9E6
:104040000032FFF723F84FF4805000900E48694685
:10405000FFF7B8F80C48FFF7D4FA0B4804A904940A
:104060000694FEF7E3FF6020CDE90704064800222E
:1040700007A909940B94FFF730FA0348FFF7D2F928
:104080000EB010BD00040040683C012010B58EB099
:1040900000241C21009407A8019402940394049422
:1040A00005940694FCF70EF9164842F2107140226E
:1040B000134BC0E9024104618461C0E90032FEF79C
:1040C000E5FF4FF4805000900E486946FFF77AF8FC
:1040D0000C48FFF796FA0B4804A904940694FEF7DF
:1040E000A5FF6020CDE907040648002207A909942E
:1040F0000B94FFF7F2F90348FFF794F90EB010BDE7
:1041000000080040A83C01200A48002130B4084CB7
:104110000C224FF416530460C0E90131C160C0E9BC
:1041200004128161C1610162416230BCFFF76CBB66
:10413000004C0040283D01200A48002130B4084CC2
:104140000C224FF4E1330460C0E90131C160C0E9E1
:1041500004128161C1610162416230BCFFF754BB4E
:1041600000440040A83D01200A48002130B4084C1A
:104170000C224FF4E1330460C0E90131C160C0E9B1
:1041800004128161C1610162416230BCFFF73CBB36
:1041900000480040283E012010490022104810B578
:1041A00001F0C6F808B1FCF708FB0E490C4801F015
:1041B0009BFA08B1FCF701FB0B49094800F0C8FE67
:1041C00008B1FCF7FAFA064801F0E6FA002803D035
:1041D000BDE81040FCF7F1BA10BD0000AC000020B3
:1041E00020400120080200200C010020014A10702C
:1041F00051607047000000202DE9F041224D0F462C
:104200009846164669680C18FDF7F8FA28780221D6
:10421000FCF7D4FAFDF7A6FAFDF7F0FA5FEA08001A
:1042200005D0012810D0B8F1020F28D11AE00025DE
:1042300007E000237A5D21461846FDF79DFA641CCD
:104240006D1CB542F5D31AE0002508E037F81520BB
:10425000002301202146FDF78FFAA41C6D1CB542F6
:10426000F4D30CE0002508E057F8252000230220B5
:104270002146FDF781FA241D6D1CB542F4D3BDE83B
:10428000F041FDF76FBA000000000020FEE7704724
:104290000148FDF705BE0000BC4201202DE9F041B8
:1042A0000E46016904460068202301294FF40042AC
:1042B000016C00EB4615D5F8080B08D02C4FB9421D
:1042C0004FD1010449D500BFC5F8082B4DE05FEA86
:1042D000007CDFF8A0C004F5717711D5614503D9E2
:1042E000000401D5C5F8082B2046FEF72DF92068FB
:1042F00001213A4601F00AFE0820C5F8080B34E017
:104300005FEA806E02D5C5F8083B2EE010F0280F5A
:104310002BD1614501D90004D6D4D5F8102BC6EBBA
:10432000C60004EB8000C2F31202D0F804128A1A0D
:10433000C0F81422D0F808221144C0F80812204610
:10434000F1B2FDF793FC86B9D4F8100268B9206881
:1043500001213A4601F0DAFD07E0800601D5C5F8F3
:10436000083B2046F1B2FDF781FC0020BDE8F0815A
:104370000A31544F0A30544F2DE9F84F0E46056864
:104380008146C1EBC60100EB8104D4E914203C3422
:10439000904202D90120BDE8F88FA168101A81422D
:1043A00000D20846C01C05EB461887081BE000BF7A
:1043B000A268A0EB010A524500D2924699F810106B
:1043C0000AF1030000911FFA8AF3E1688708284682
:1043D000F2B202F013F8E16801EB0A00E060A169B3
:1043E00001EB0A00A061D8F8180980B2B84205D3E1
:1043F000D4E90501814201D20028D9D1D4E90501CF
:10440000884208D8D5F83418012006F00F029040F1
:104410008143C5F834180020BDE770477047FDF7A9
:1044200021BB000070B5B8B0342124A8FBF74AFFC7
:10443000142131A8FBF746FF90216846FBF742FFA5
:104440001E48016841F080510160006800F0805012
:1044500036901B48016821F4404141F480410160DD
:1044600000680DF1B00C012400F4404036900420A7
:10447000602206238CE80D00A1052F90260402255A
:10448000CDE92A51CDE9244624A8FEF71BFCE80219
:1044900000240F21CDE93340359431A8CDE9311501
:1044A0000121FEF723FB07481494129413941F94E0
:1044B00000906846FEF77CF838B070BD4038024086
:1044C0000070004080032000104A30B51048146886
:1044D00000210F4B44F470041460083305680D4A42
:1044E0000D4C45F00105056019600368051D13407A
:1044F000074A03600C322C600568E305034C25F481
:1045000080250560803C1160236030BD88ED00E0AF
:1045100000380240FFFFF6FE103000240148FEF78D
:10452000C0BE0000283C0120F0B5274B4FF0804E64
:10453000264D02689842264E264F274C09D07045DA
:1045400007D0A84205D0B04203D0B84201D0A04263
:1045500005D1D1F804C022F070024CEA0202984260
:104560001BD0704519D0A84217D0B04215D0B84220
:1045700013D0A04211D0194DA8420ED0184DA84218
:104580000BD0184DA84208D0174DA84205D0174DA2
:10459000A84202D0164DA84203D1CD6822F4407241
:1045A0002A434D6922F080022A43026098428A68B9
:1045B000C2620A68826201D0A04201D10969016326
:1045C00001214161F0BD00000000014000040040F5
:1045D00000080040000C0040000401400040014081
:1045E000004401400048014000180040001C004009
:1045F0000020004010B5046A012301F01F018B4028
:104600009C4304628A40016A1143016210BD42EA80
:10461000032283680A4323F47F410A438260704780
:10462000826822F070020A4342F0070181607047FD
:10463000F0B5026ADFF860C0184F22F00102DFF81F
:1046400060E00262066A4268836926F002060D682D
:10465000B8428C6803EA0C0323F0030344EA06041F
:1046600045EA030501D0704505D1CB6824F0080464
:10467000234323F00404B84201D0704505D122F44D
:104680004076D1E9053233431A4342608561496877
:1046900041630462F0BD00008FFFFEFF0000014097
:1046A00000040140F0B5026A194E1A4C22F01002C3
:1046B000DFF864E00262056A4368826925F020053C
:1046C000D1F808C0A0420F6802EA060222F4407244
:1046D00045EA0C1542EA072201D0704506D1CE68A2
:1046E00025F0800545EA061525F04005A04201D0D9
:1046F000704507D1D1E9054623F4406343EA8403BA
:1047000043EA860343608261496881630562F0BDC4
:10471000FF8FFFFE0000014000040140F0B5026A77
:10472000194F1A4E22F48072DFF864E00262056AC3
:104730004368C26925F40075D1F808C0B0420C681E
:1047400002EA070222F0030245EA0C2544EA0204C9
:1047500001D0704506D1CF6825F4006242EA0722F5
:1047600022F48065B04201D0704507D123F4405255
:10477000D1E9053642EA031242EA06134360C461F6
:104780004968C1630562F0BD8FFFFEFF0000014074
:1047900000040140F0B5026A124B114F22F480521E
:1047A00098420262046A4268C36924F400548E6825
:1047B0000D6803EA070323F4407344EA063443EA2E
:1047C000052302D0084DA84204D14D6922F480424D
:1047D00042EA85124260C361496801640462F0BD27
:1047E000FF8FFFFE0000014000040140F0B5026AA7
:1047F000DFF844C022F480320262056A4268446DE8
:1048000025F400350E8960450C4F0B6804EA070457
:1048100045EA064543EA040302D0094CA04204D10C
:104820004C6922F4803242EA0422426043654968BE
:1048300081650562F0BD0000000001408FFFFEFFB2
:1048400000040140F0B5026ADFF844C022F480128F
:104850000262046A4268436D24F400140E896045C4
:104860000C4F0D6803EA070344EA065443EA0523A4
:1048700002D0094DA84204D14D6922F4802242EAB7
:104880008522426043654968C1650462F0BD00004D
:1048900000000140FF8FFFFE0004014010B5036AD5
:1048A000046A23F00A0324F00104046284690B43C0
:1048B00024F0F00141EA02118161036210BD10B5DC
:1048C000036A23F0100303628369046A23F47043CC
:1048D00024F0A00443EA0232826144EA0111016239
:1048E00010BD00000148FEF7FBBE0000283D01207E
:1048F00090F82410C90706D00168836A4A6822F438
:1049000000321A434A6090F82410890706D50168DE
:10491000C36A4A6822F480321A434A6090F824102D
:10492000490706D50168036B4A6822F480221A43BE
:104930004A6090F82410090706D50168436B4A685D
:1049400022F400421A434A6090F82410C90606D5A2
:104950000168836B8A6822F480521A438A6090F857
:104960002410890606D50168C36B8A6822F40052B8
:104970001A438A6090F82410490611D50168036C27
:104980004A6822F480121A434A60016CB1F5801F14
:1049900006D10168436C4A6822F4C0021A434A6097
:1049A00090F82410090606D50168826C486820F446
:1049B000002010434860704738B500250446C5679D
:1049C000FDF74AF803462068006800070BD56FF032
:1049D0007E400090002220464FF4001100F09CF928
:1049E00008B1032038BD2020606784F87050A067AC
:1049F000002038BD10B5806B0021A0F85A10A0F837
:104A00005210FEF76CFE10BD70B5846B0025216856
:104A1000606FA66F8968090606D5212804D1A4F81D
:104A20005250204600F045F820688068400606D5C0
:104A3000222E04D1A4F85A50204600F02AF8E06F44
:104A400040F01000E0672046FEF749FE70BD10B54B
:104A5000C169806BB1F5807F13D00021A0F85A1096
:104A6000202201680B6823F480730B6001688B6857
:104A700023F001038B6001688B6823F040038B6097
:104A80008267FFF703F810BD10B5806BFFF706F8DB
:104A900010BD10B50168202200230C6824F4907426
:104AA0000C6001688C6824F001048C6082670366E6
:104AB00010BD016820220B6823F0C0030B60426721
:104AC000704700002DE9F04104468068DFF818C205
:104AD000864F2368D4E90452E16928431E68002503
:104AE0000A438349104306EA0C0606431E604FF44E
:104AF00000422068E668436823F440533343436030
:104B00002368A669206AD3F808C030432CF43066C5
:104B100006439E602068B8420AD1086810F003007E
:104B200052D001287BD002287AD003286ED186E0AB
:104B3000704B98420AD1086810F00C0079D0042814
:104B40007BD0082877D00C2860D178E06A4B984257
:104B50000AD1086810F030006BD010286DD02028E2
:104B600069D0302852D16AE0644B98420AD1086873
:104B700010F0C0005DD040285FD080285BD0C028F6
:104B800044D15CE05E4B98420DD1086810F440704F
:104B90004FD0B0F5807F50D0B0F5007F4BD0B0F54E
:104BA000407F33D14BE0574B98420FD1086810F447
:104BB000406009D0B0F5806F3FD0B0F5006F3AD0BB
:104BC000B0F5406F22D13AE0012120E04E4B9842EF
:104BD0000DD1086810F440502BD0B0F5805F2CD078
:104BE000B0F5005F27D0B0F5405F0FD127E0474B0D
:104BF00098420BD1086810F440401AD0B0F5804FAD
:104C00001BD0904217D0B0F5404F18D01021E0696A
:104C10004FF6EF76904238D109295DD202E00CE0E0
:104C200009E006E0DFE801F00D1027582A5858582F
:104C30002D000021EBE70221E9E70421E7E7082145
:104C4000E5E7FDF7EFFF01E0FDF7FCFF0146D4F8D3
:104C50000400490001EB5001B1FBF0F080B2A0F17B
:104C60001001B14238D84FF6F0732168C0F3420208
:104C70001840104324E026496068EBE7FDF7F2FF97
:104C8000E4E760684FF48031E4E7092924D2DFE8E3
:104C900001F0050819231C2323231F00FDF7C2FF81
:104CA00001E0FDF7CFFF0146D4F8040001EB50010D
:104CB000B1FBF0F080B2A0F11001B1420CD8216834
:104CC000C8600AE013496068F0E7FDF7CBFFEAE748
:104CD000606802EB5001EBE701250020206660666A
:104CE0002846BDE8F0810000F369FFEF00100140A5
:104CF000903802400044004000480040004C004012
:104D0000005000400014014000780040007C00404A
:104D10000048E8010024F4002DE9F04198461746C8
:104D20000E460446069D08E0681C06D0FCF794FE7B
:104D3000A0EB0800A8420BD855B12068C06936EA3C
:104D4000000017D00020B842EED00020BDE8F0816E
:104D50002168202000220B6823F4D0730B602168A7
:104D60008B6823F001038B606067A067032084F8E1
:104D70007020EBE70120E6E70148FEF7B1BC000038
:104D8000A83D01202DE9F041D0F89832D0F89022CA
:104D9000DAB101EB8104002500EB8404E6694EB131
:104DA000C1EBC10703EB87035B6CB6FBF3F703FBB7
:104DB000176323B1C2F814520020BDE8F08100232C
:104DC000E5611A4600F073FCF6E70220F5E770B5DE
:104DD000D0F89042054600F081FBC4F80C02D5F8EB
:104DE000900248B1D5F8940204F50371C268D4F872
:104DF00004029047002070BD022070BD70B50026EF
:104E00000446812100F0B2FA002520460121E56226
:104E100000F0ACFA82212046C4F8585100F0A6FAFE
:104E2000D4F89002256448B1D4F8940204F52474AF
:104E300040688047206801F015FB2560304670BD52
:104E400010B5D0E9A44159B194F80002FF2807D069
:104E50008B68214694F801229847FF2084F80002CD
:104E6000002010BD0A210180004870473001002059
:104E700043210180004870478001002043210180C8
:104E8000004870473C0100204321018000487047E2
:104E9000C40100202DE9F04101250446007C0026D4
:104EA0004FF4007790B3402320460222812100F086
:104EB0005DFB4023E56202222046012100F056FB03
:104EC000082320460322C4F85851822100F04EFBEB
:104ED0004FF40770256401F09BFEC4F89002F8B10E
:104EE0000546D4F89402006880470020C5F81402F3
:104EF000C5F81802207CD5F8042298B1402320463A
:104F0000012100F03FFB3046BDE8F081FFE70222BF
:104F10003B468121204600F029FB3B46E562CAE77B
:104F20000126F0E73B46EAE710B5D0F8901269B1E8
:104F3000027C002AD1F8042205D04023012100F090
:104F400021FB002010BD4FF40073F7E7022010BDD5
:104F5000002902464FF0020003D04FF00000C2F8D3
:104F600094127047D0F89002C0F8041200207047E5
:104F7000D0F89002C0F81022C0F808120020704744
:104F80002DE9FC4105460C4600200646D5F89072F6
:104F90008DF80000ADF80400087810F0600122D010
:104FA00020293CD1E288B2B1000608D5D5F8940298
:104FB0003946836860789847E288394627E0607808
:104FC000394687F80002A07987F801022846E2886E
:104FD00000F04FF828E0D5F89402002221468368BB
:104FE0006078984720E0607820B10A2809D00B2823
:104FF00015D110E095F87402032810D1022201A9FE
:1050000005E095F87402032809D101226946284673
:1050100000F049F808E095F87402032804D021460E
:10502000284600F01BF802263046BDE8FC8110B58A
:10503000D0F88C2252689047002010BD13460A46D3
:10504000002110B500F09EFA002010BD13460A465C
:10505000002110B500F02BFB002010BD10B5802101
:10506000044600F009FB2046BDE81040002100F096
:1050700003BB10B5C0F848210323C0F86C321346B7
:10508000C0F84C210A46002100F07CFA002010BD37
:105090000521002310B51A46C0F86C12194600F01D
:1050A00071FA002010BD10B5C2610223C0F86C3245
:1050B000134602620A46002100F0F9FA002010BDF2
:1050C0000421002310B51A46C0F86C12194600F0EE
:1050D000EEFA002010BD000004A00A46024910B5F7
:1050E00000F0F5F8004810BDC046012043444320BD
:1050F000436F6E66696700001220088000487047A1
:10510000D000002004A00A46024910B500F0DFF8E4
:10511000004810BDC046012043444320496E7465D9
:1051200072666163650000000420088000487047D3
:10513000CC00002004A00A46024910B500F0C7F8D0
:10514000004810BDC046012053544D6963726F651D
:105150006C656374726F6E696373000004A00A4625
:10516000024910B500F0B3F8004810BDC046012058
:1051700053544D3332205669727475616C20436FFD
:105180006D506F727400000010B51A2008800B4833
:105190000A490830021F096800681468081809D015
:1051A00007490822FEF7D8FC0549042220461031A1
:1051B000FEF7D2FC0248801E10BD000020F4F01F54
:1051C000F20000200C20088000487047E400002016
:1051D000F8B5044648880D46010A06294CD006DC7D
:1051E00001290DD0022910D003294FD11BE0072936
:1051F0004AD00F294AD1D4F88812207CCA6937E0F6
:10520000D4F88812207C0A6832E0207C022600282C
:10521000D4F88C0205D0C16A6846884701464670BA
:1052200041E0816AF8E7C0B206282FD2DFE800F03B
:1052300003080D12171CD4F88812207C4A6817E066
:10524000D4F88812207C8A6812E0D4F88812207C76
:10525000CA680DE0D4F88812207C0A6908E0D4F806
:105260008812207C4A6903E0D4F88812207C8A697D
:1052700069469047014616E0207C38B9D4F88C0284
:10528000416B68468847F5E7207C20B129462046D7
:10529000FFF7E4FEF8BDD4F88C02016B684688473E
:1052A000014607204870BDF8000048B1EA8852B1B5
:1052B000824200D902462046ADF80020FFF7F3FEF7
:1052C000E8880028E6D12046FFF7FAFEF8BD70B561
:1052D00000284FF000061ED00546344602E0641C4C
:1052E0006D1CE4B22B78002BF9D1022505EB4404A8
:1052F00014801278731C03258A550024B21CCD54E7
:1053000006E0551C8B54EAB2531C401C8C54DAB294
:105310000378002BF5D170BD01004FF0000004D0E0
:10532000012901D0022901D00220704701207047D5
:1053300010B580B1D0F88C3213B10023C0F88C3294
:1053400009B1C0F888120121027080F8741200F0CF
:10535000C9F8002010BD022010BD10B5D0F8980289
:10536000FCF7B8FCBDE81040FFF7D6BF10B5D0F889
:105370009802FCF789FCBDE81040FFF7CDBF70B57F
:105380001646044649B1D4F88C0242691AB194F821
:105390007402032850D0022070BDD4F86C3200256E
:1053A00004F11400022B03D0042B3AD0C3B33CE029
:1053B000D0E90313994207D9C91AC1608AB23146AC
:1053C0002046FFF743FE12E08068B0FBF3F103FBD9
:1053D000110199B9984211D3D4F8701288420DD2B4
:1053E000002220461146FFF731FEC4F87052002318
:1053F0001A461946204600F0C5F816E0D4F88C028B
:10540000C16829B194F87402032801D12046884765
:105410008021204600F030F92046FFF739FE04E0F5
:10542000FFE78021204600F027F994F87802012850
:1054300004D184F8785201E020469047002070BDE6
:1054400070B51546044649B1D4F88C0282691AB188
:1054500094F87402032830D0022070BDD4F86C1286
:1054600004F5A070032902D005291ED027E0D0E959
:1054700003218A420BD9531AC3600846834200D3E2
:10548000034629469AB22046FFF7D8FD17E0D4F824
:105490008C02016929B194F87402032801D12046D5
:1054A00088472046FFF70CFE09E00020C4F86C0294
:1054B0000146204600F0E0F801E020469047002039
:1054C00070BD0020704710B5012180F87412D0F82B
:1054D0008C22017952689047002010BDD0F89802C4
:1054E000FCF726BC70B5017839BB154900220223B0
:1054F00006254FF0A044C1F80004C0F898120846F1
:10550000C1E90332C1E906320A624A62CA620A6329
:10551000C1E90045FCF722FF08B1FBF74EF9084846
:105520008021FCF76FFB064840220021FCF76EFB50
:10553000034880220121FCF769FB002070BD0000B8
:10554000BC420120D0F8982201F07F000B06C0EB8E
:10555000C00002EB800002D590F83E00704790F842
:10556000FE017047002070470020704710B51C46B0
:10557000D0F8980213462246FCF7E3FBBDE8104042
:10558000FFF7CABE10B5D0F89802FCF70AFCBDE8D8
:105590001040FFF7C1BE70B50022044640231146FB
:1055A000FFF7E4FF4026C4F850610125334600228E
:1055B00020468021C4F84451FFF7D8FFD4F8901258
:1055C00000206662A56184F87452C4F86C026060C1
:1055D000C4F87C0229B1D4F88C020021426820462C
:1055E0009047002070BD90F8751280F8741200206A
:1055F000704710B590F87412032904D1D0F88C12BA
:10560000C96901B18847002010BD017400207047AE
:1056100010B5D0F89802FCF783FFBDE81040FFF703
:105620007BBE70B5044600F52070054600F048F8D2
:10563000B4F88632012194F8800210F01F02C4E908
:105640009B130AD0012A0DD0022A10D000F080014D
:10565000204600F011F8002070BD2946204600F0D9
:10566000A0F8F8E72946204600F0CDF9F3E72946EF
:10567000204600F020F9EEE710B5D0F89802FCF7CC
:10568000B2FBBDE81040FFF747BE10B5D0F8980256
:10569000FCF761FFBDE81040FFF73EBE90F87422B2
:1056A000042180F8752280F874120020704710B52C
:1056B000D0F89802FCF7D1FBBDE81040FFF72CBEF4
:1056C0000A7802704A784270CB788A7802EB03221B
:1056D00042804B790A7902EB032282808A79C97968
:1056E00002EB0121C180704702464FF0000011B16A
:1056F000C2F88C1270470220704710B5D0F88C2287
:1057000002241AB11268904700B90024204610BD47
:1057100070B5204D044688780E46C1B20129297023
:1057200031D894F8740202280BD003280FD03146E8
:105730002046FFF793FC29782046BDE87040FFF72C
:1057400076BCD9B16160032084F8740209E071B1BC
:105750006068884212D0C1B22046FFF768FC297801
:1057600061602046FFF7C9FF02280CD006E0022046
:10577000616084F874022046FFF759FC2046BDE8BA
:105780007040FFF79DBC31462046BDE87040FFF7F2
:1057900065BC00002C01002010B5FFF776FF00204B
:1057A00010BD2DE9F0410A784FF0000612F06002BA
:1057B00008D0202A01D0402A70D1D0F88C229268DB
:1057C00090476DE04B78002201250A2B66D2DFE876
:1057D00003F0405D6557650805652C29FFF7F8FC67
:1057E0005EE004468888D8B9C888C8B94888802847
:1057F00016D294F8742200F07F07032A10D039469D
:10580000204684F87672FFF703FF2046FFF758FC26
:105810001FB1022084F8740242E084F874523FE021
:1058200020463BE0FFF774FF3AE0CB88012B35D1EF
:1058300090F87432012B04D0022B02D0032B2DD10F
:1058400004E000F108018260012216E00122011D3E
:1058500013E090F87422012A03D0022A01D0032A0F
:105860001CD1CA88022A19D1D0F87C12C56009B1AE
:105870000321C160022200F10C01FFF714FC0FE0CC
:10588000498801290CD1C0F87C5211E090F874329B
:10589000012B08D0022B06D0032B04D0FFF7DEFB30
:1058A0003046BDE8F08149880129F9D1C0F87C2251
:1058B000FFF706FCF4E70A462DE9F04104461078AC
:1058C0000979002710F060030AD0202B01D0402B6B
:1058D00050D1D4F88C0211468368204698478FE057
:1058E000C0F34110012806D05078D0B301282AD047
:1058F00003283FD107E0D4F88C0211468368204684
:10590000BDE8F041184794F87402022802D0032839
:1059100072D10AE071B380296ED02046FFF7ACFE49
:1059200080212046FFF7A8FE6AE0508838B931B1DF
:10593000802904D0D08810B92046FFF79DFE20466C
:10594000FFF7BEFB5CE094F874020228E2D0032863
:1059500052D1508898BB4806F1D02046FFF7FDFC95
:10596000EDE7FFE794F874020026022803D003282D
:1059700042D112E040E009B180293DD1080601F092
:105980007F0000EB800004EB800101D5143101E0C1
:1059900001F5A07102220E602AE0080601F00F0056
:1059A00000EB800004EB80000AD5806920B301F091
:1059B0007F0000EB800004EB800514350BE01FE056
:1059C000D0F84401C0B101F07F0000EB800004EB8F
:1059D000800505F5A07541B1802906D02046FFF766
:1059E000B1FD10B10120286000E02E60022229469E
:1059F0002046FFF758FB03E011462046FFF72EFB39
:105A00003846BDE8F08170B5054608780C4610F0C0
:105A1000600003D0202801D0402816D195F87402E8
:105A2000012803D0022801D003280ED120790128B3
:105A30000BD8D5F88C02826828469047E18801434C
:105A400006D12846FFF73CFB02E02846FFF706FB9D
:105A5000002070BD70B54D7801230A78012D1C4CD3
:105A600002F00F0503FA05F3D0F81C5817D000EB2D
:105A7000421245EA0343C0F81C38D2F8000B000478
:105A80000BD40B89C978D2F8000BC3F30A0318436F
:105A900044EA81410843C2F8000B002070BD9EB269
:105AA0003543C0F81C5800EB4213D3F8000900043A
:105AB000F3D40D89C978D3F80009C5F30A05890420
:105AC000284341EA825108432043C3F80009E4E730
:105AD00000800010D0F800196FF30A01C0F8001917
